{
  "contractName": "BloodstainStorage",
  "abi": [
    {
      "inputs": [],
      "stateMutability": "nonpayable",
      "type": "constructor"
    },
    {
      "anonymous": false,
      "inputs": [
        {
          "indexed": false,
          "internalType": "uint256",
          "name": "id",
          "type": "uint256"
        },
        {
          "indexed": false,
          "internalType": "string",
          "name": "imageUrl",
          "type": "string"
        },
        {
          "indexed": false,
          "internalType": "string",
          "name": "stainType",
          "type": "string"
        },
        {
          "indexed": false,
          "internalType": "string",
          "name": "analysisResult",
          "type": "string"
        }
      ],
      "name": "BloodstainStored",
      "type": "event"
    },
    {
      "inputs": [
        {
          "internalType": "string",
          "name": "_imageUrl",
          "type": "string"
        },
        {
          "internalType": "string",
          "name": "_stainType",
          "type": "string"
        },
        {
          "internalType": "string",
          "name": "_analysisResult",
          "type": "string"
        }
      ],
      "name": "storeBloodstain",
      "outputs": [],
      "stateMutability": "nonpayable",
      "type": "function"
    },
    {
      "inputs": [
        {
          "internalType": "uint256",
          "name": "_id",
          "type": "uint256"
        }
      ],
      "name": "getBloodstain",
      "outputs": [
        {
          "internalType": "string",
          "name": "",
          "type": "string"
        },
        {
          "internalType": "string",
          "name": "",
          "type": "string"
        },
        {
          "internalType": "string",
          "name": "",
          "type": "string"
        }
      ],
      "stateMutability": "view",
      "type": "function",
      "constant": true
    }
  ],
  "bytecode": "0x608060405234801561001057600080fd5b50610915806100206000396000f3fe608060405234801561001057600080fd5b50600436106100365760003560e01c80634589140e1461003b5780635ec3071b14610057575b600080fd5b610055600480360381019061005091906104d8565b610089565b005b610071600480360381019061006c919061056f565b61016e565b60405161008093929190610620565b60405180910390f35b6001600081548092919061009c906107e1565b9190505550604051806060016040528084815260200183815260200182815250600080600154815260200190815260200160002060008201518160000190805190602001906100ec9291906103b8565b5060208201518160010190805190602001906101099291906103b8565b5060408201518160020190805190602001906101269291906103b8565b509050507fc70691c94e7fe5be50117288408b7f572b4fb22d2ff1c4ec98553afab645b09a600154848484604051610161949392919061068c565b60405180910390a1505050565b606080606060008411801561018557506001548411155b6101c4576040517f08c379a00000000000000000000000000000000000000000000000000000000081526004016101bb9061066c565b60405180910390fd5b60008060008681526020019081526020016000206040518060600160405290816000820180546101f3906107af565b80601f016020809104026020016040519081016040528092919081815260200182805461021f906107af565b801561026c5780601f106102415761010080835404028352916020019161026c565b820191906000526020600020905b81548152906001019060200180831161024f57829003601f168201915b50505050508152602001600182018054610285906107af565b80601f01602080910402602001604051908101604052809291908181526020018280546102b1906107af565b80156102fe5780601f106102d3576101008083540402835291602001916102fe565b820191906000526020600020905b8154815290600101906020018083116102e157829003601f168201915b50505050508152602001600282018054610317906107af565b80601f0160208091040260200160405190810160405280929190818152602001828054610343906107af565b80156103905780601f1061036557610100808354040283529160200191610390565b820191906000526020600020905b81548152906001019060200180831161037357829003601f168201915b5050505050815250509050806000015181602001518260400151935093509350509193909250565b8280546103c4906107af565b90600052602060002090601f0160209004810192826103e6576000855561042d565b82601f106103ff57805160ff191683800117855561042d565b8280016001018555821561042d579182015b8281111561042c578251825591602001919060010190610411565b5b50905061043a919061043e565b5090565b5b8082111561045757600081600090555060010161043f565b5090565b600061046e61046984610717565b6106e6565b90508281526020810184848401111561048657600080fd5b61049184828561076d565b509392505050565b600082601f8301126104aa57600080fd5b81356104ba84826020860161045b565b91505092915050565b6000813590506104d2816108c8565b92915050565b6000806000606084860312156104ed57600080fd5b600084013567ffffffffffffffff81111561050757600080fd5b61051386828701610499565b935050602084013567ffffffffffffffff81111561053057600080fd5b61053c86828701610499565b925050604084013567ffffffffffffffff81111561055957600080fd5b61056586828701610499565b9150509250925092565b60006020828403121561058157600080fd5b600061058f848285016104c3565b91505092915050565b60006105a382610747565b6105ad8185610752565b93506105bd81856020860161077c565b6105c6816108b7565b840191505092915050565b60006105de601583610752565b91507f496e76616c696420626c6f6f64737461696e20494400000000000000000000006000830152602082019050919050565b61061a81610763565b82525050565b6000606082019050818103600083015261063a8186610598565b9050818103602083015261064e8185610598565b905081810360408301526106628184610598565b9050949350505050565b60006020820190508181036000830152610685816105d1565b9050919050565b60006080820190506106a16000830187610611565b81810360208301526106b38186610598565b905081810360408301526106c78185610598565b905081810360608301526106db8184610598565b905095945050505050565b6000604051905081810181811067ffffffffffffffff8211171561070d5761070c610888565b5b8060405250919050565b600067ffffffffffffffff82111561073257610731610888565b5b601f19601f8301169050602081019050919050565b600081519050919050565b600082825260208201905092915050565b6000819050919050565b82818337600083830152505050565b60005b8381101561079a57808201518184015260208101905061077f565b838111156107a9576000848401525b50505050565b600060028204905060018216806107c757607f821691505b602082108114156107db576107da610859565b5b50919050565b60006107ec82610763565b91507fffffffffffffffffffffffffffffffffffffffffffffffffffffffffffffffff82141561081f5761081e61082a565b5b600182019050919050565b7f4e487b7100000000000000000000000000000000000000000000000000000000600052601160045260246000fd5b7f4e487b7100000000000000000000000000000000000000000000000000000000600052602260045260246000fd5b7f4e487b7100000000000000000000000000000000000000000000000000000000600052604160045260246000fd5b6000601f19601f8301169050919050565b6108d181610763565b81146108dc57600080fd5b5056fea26469706673582212204073d9cd72fb931835523e634d2edcfd0483468efab599916c445d3028284b5f64736f6c63430008000033",
  "immutableReferences": {},
  "source": "// SPDX-License-Identifier: MIT\r\npragma solidity ^0.8.0;\r\n\r\ncontract BloodstainStorage {\r\n    struct Bloodstain {\r\n        string imageUrl;\r\n        string stainType;\r\n        string analysisResult;\r\n    }\r\n\r\n    mapping(uint256 => Bloodstain) private bloodstains;\r\n    uint256 private bloodstainCount;\r\n\r\n    event BloodstainStored(uint256 id, string imageUrl, string stainType, string analysisResult);\r\n\r\n    constructor() {}\r\n\r\n    function storeBloodstain(string memory _imageUrl, string memory _stainType, string memory _analysisResult) public {\r\n        bloodstainCount++;\r\n        bloodstains[bloodstainCount] = Bloodstain(_imageUrl, _stainType, _analysisResult);\r\n        emit BloodstainStored(bloodstainCount, _imageUrl, _stainType, _analysisResult);\r\n    }\r\n\r\n    function getBloodstain(uint256 _id) public view returns (string memory, string memory, string memory) {\r\n        require(_id > 0 && _id <= bloodstainCount, \"Invalid bloodstain ID\");\r\n        Bloodstain memory b = bloodstains[_id];\r\n        return (b.imageUrl, b.stainType, b.analysisResult);\r\n    }\r\n}\r\n",
  "sourcePath": "C:\\Users\\Divit\\bloodstain-web3\\bloodstain-web3\\contracts\\BloodstainStorage.sol",
  "compiler": {
    "name": "solc",
    "version": "0.8.0+commit.c7dfd78e.Emscripten.clang"
  },
  "schemaVersion": "3.4.16",
  "updatedAt": "2025-03-01T01:28:36.202Z",
  "networkType": "ethereum",
  "devdoc": {
    "kind": "dev",
    "methods": {},
    "version": 1
  },
  "userdoc": {
    "kind": "user",
    "methods": {},
    "version": 1
  }
}